{
  "_format": "hh-sol-artifact-1",
  "contractName": "Price_ETH",
  "sourceName": "contracts/priceFeed/Price_ETH.sol",
  "abi": [
    {
      "inputs": [],
      "stateMutability": "nonpayable",
      "type": "constructor"
    },
    {
      "inputs": [],
      "name": "getLatestPrice",
      "outputs": [
        {
          "internalType": "int256",
          "name": "",
          "type": "int256"
        }
      ],
      "stateMutability": "view",
      "type": "function"
    }
  ],
  "bytecode": "0x608060405234801561001057600080fd5b50738a753747a1fa494ec906ce90e9f37563a8af630e6000806101000a81548173ffffffffffffffffffffffffffffffffffffffff021916908373ffffffffffffffffffffffffffffffffffffffff160217905550610298806100746000396000f3fe608060405234801561001057600080fd5b506004361061002b5760003560e01c80638e15f47314610030575b600080fd5b61003861004e565b6040516100459190610123565b60405180910390f35b60008060008060008060008054906101000a900473ffffffffffffffffffffffffffffffffffffffff1673ffffffffffffffffffffffffffffffffffffffff1663feaf968c6040518163ffffffff1660e01b815260040160a06040518083038186803b1580156100bd57600080fd5b505afa1580156100d1573d6000803e3d6000fd5b505050506040513d601f19601f820116820180604052508101906100f591906101e7565b94509450945094509450839550505050505090565b6000819050919050565b61011d8161010a565b82525050565b60006020820190506101386000830184610114565b92915050565b600080fd5b600069ffffffffffffffffffff82169050919050565b61016281610143565b811461016d57600080fd5b50565b60008151905061017f81610159565b92915050565b61018e8161010a565b811461019957600080fd5b50565b6000815190506101ab81610185565b92915050565b6000819050919050565b6101c4816101b1565b81146101cf57600080fd5b50565b6000815190506101e1816101bb565b92915050565b600080600080600060a086880312156102035761020261013e565b5b600061021188828901610170565b95505060206102228882890161019c565b9450506040610233888289016101d2565b9350506060610244888289016101d2565b925050608061025588828901610170565b915050929550929590935056fea2646970667358221220dd4558e0e183f6cb0c9d7d576df84302466b1a721649ae454ad69072ce63147164736f6c63430008090033",
  "linkReferences": {},
  "deployedLinkReferences": {}
}